:020000040000FA
:02000000F728DF
:080008008B10D5200618052815
:10001000D12009001430A000FA30A100FA30A2006B
:100020000000A20B1028A10B0E28A00B0C28080022
:10003000C830A000FA30A1000000A10B1C28A00BC2
:100040001A2808001430A000FA30A1000000A10B0B
:100050002628A00B242808000430A000FA30A100B4
:100060000000A10B3028A00B2E2808000830A000AB
:10007000FA30A1000000A10B3A28A00B3828080094
:100080001430A2000000A20B4228080003306920AF
:100090002220033069202C20033069202C200230DC
:1000A00069202C2028305C200C305C2001305C2042
:1000B000362006305C20080088125F288816A500CC
:1000C000250E6920250869200230A000A00B6628B3
:1000D00008000F39A600831203130712261807160B
:1000E0008712A61887160713261907178713A6194C
:1000F00087178817000000008813080001305C2073
:10010000362008007E2080305C204D305E20453057
:100110005E2054305E2041305E204C305E2008006E
:100120007E2080305C2050305E204C305E2041309C
:100130005E2053305E2054305E2049305E204330D4
:100140005E20080080305C204E305E204F305E2004
:1001500020305E204F305E2042305E204A305E20EC
:1001600045305E2043305E2054305E20080083120C
:10017000031341309F0040201F151F19BD28831213
:1001800003131E08A3001E08A40008002308023C55
:10019000031CD528031DD1282408003C031CD528A6
:1001A000D1288312031388110800831203138815C2
:1001B000080083120313323095000030A70090200E
:1001C0000A200800831203135E3095000130A70057
:1001D000A2200800831203138C3095000230A70080
:1001E00082200A200800061DEA20D92008008B176B
:1001F0000B168316031388018701831203138801EA
:10020000870108131820182046207E208316031328
:10021000071107148714881183120313881183169A
:10022000031380309F0083160313F930920083126A
:1002300003130C3097008312031307309200E2205F
:10024000B720C620061DEA20861CF320E2200A20E3
:02025000202963
:02400E00713F00
:00000001FF
